:100000000C9434000C9451000C9451000C94510049
:100010000C9451000C9451000C9451000C9451001C
:100020000C9451000C9451000C9451000C9451000C
:100030000C9451000C9451000C9451000C945100FC
:100040000C9451000C9451000C9451000C945100EC
:100050000C9451000C9451000C9451000C945100DC
:100060000C9451000C94510011241FBECFEFD8E026
:10007000DEBFCDBF11E0A0E0B1E0E6E4FBE002C0EE
:1000800005900D92A03CB107D9F711E0A0ECB1E0CA
:1000900001C01D92A93EB107E1F70E9426020C940F
:1000A000A1050C9400008F7728988EBD0DB407FE33
:1000B000FDCF85E58EBD0DB407FEFDCF8EB5289A28
:1000C000089585E58EBD0DB407FEFDCF8EB508956C
:1000D0008EBD0DB407FEFDCF08958CB580658CBD37
:1000E00008951F93182F8A3019F48DE00E94710033
:1000F0008091C00085FFFCCF1093C60080E090E0A7
:100100001F9108958091C00087FFFCCF8091C600A9
:1001100008958FEE84B98FEF87B98EEE8AB981EB9F
:1001200091E09093E6018093E5011092C50087E687
:100130008093C40088E18093C10086E08093C20070
:1001400082E08093C0008093B1005D985E9808952E
:100150009C0181E007C087BB1092B200B89BFECF24
:100160002050314091E021303907A8F781E087BB6A
:10017000822F81958093B200B89BFECF0895CF93D4
:10018000DF93EC0105C088EE93E00E94A800219760
:100190002097C9F7DF91CF9108950F931F93062FF2
:1001A000182F1068289881E090E00E94BF001EBDC3
:1001B0000DB407FEFDCF81E090E00E94BF000EBDB0
:1001C0000DB407FEFDCF81E090E00E94BF00289AA9
:1001D0001F910F91089587E061E00E94CD0083E0B8
:1001E0000E94530084E00E9453008EE761E10E9468
:1001F000CD0088E063E00E94CD0088E060E00E94CE
:10020000CD0087E065E00E94CD0085E062E00E94BD
:10021000CD00089586E060E00E94CD0087E061E0B7
:100220000E94CD0089E06FE70E94CD008AE065E082
:100230000E94CD008BE064EF0E94CD008CE06FEE59
:100240000E94CD008DE060E00E94CD008EE060E075
:100250000E94CD008FE060E70E94CD0080E160E069
:100260000E94CD0082E160E00E94CD0083E160E069
:100270000E94CD0080E760E20E94CD008CE16DE13C
:100280000E94CD008DE160E40E94CD0080E261EA31
:100290000E94CD0081E260E20E94CD0082E26EE425
:1002A0000E94CD0083E265EA0E94CD0084E260E016
:1002B0000E94CD0085E26AE00E94CD008CE260E001
:1002C0000E94CD008DE260E00E94CD008EE260E0F1
:1002D0000E94CD008EE667E20E94CD008FE662E5C7
:1002E0000E94CD0080E36CE80E94CD0082E36FEFB6
:1002F0000E94CD0083E362E40E94CD0084E360E4C9
:100300000E94CD0085E360E20E94CD0086E36DE2AD
:100310000E94CD0087E364ED0E94CD0088E360E099
:100320000E94CD0089E360E00E94CD008AE363E78C
:100330000E94CD008BE36FE60E94CD008CE36EE659
:100340000E94CD008DE367E60E94CD008EE361E15F
:100350000E94CD008FE363E70E94CD0080E46FE64A
:100360000E94CD0081E46EE60E94CD0082E467E643
:100370000E94CD0083E46FEF0E94CD0084E46FEF14
:100380000E94CD0085E46FEF0E94CD0086E46FEF00
:100390000E94CD0086E561E00E94CD008DE667E019
:1003A0000E94CD0089E760E00E94CD008AE760E00E
:1003B0000E94CD0081E762E20E94CD0082E768E4FE
:1003C0000E94CD0083E760E00E94CD0084E760E0FA
:1003D0000E94CD0085E763E50E94CD0086E764E6D4
:1003E0000E94CD0087E760E00E94CD008AE56FE7BC
:1003F0000E94CD0089E560E40E94CD0088E560E8B8
:100400000E94CD008AE66BE00E94CD0088E664E0A1
:100410000E94CD008FE163E00E94CD00089587E047
:1004200061E00E94CD005E9A5D9882E390E00E94B8
:10043000BF000E94EB0008954C9903C080E091E05A
:1004400002C089E091E00E94B8020895EF92FF9205
:100450000F931F93CF93DF930E9489008CB5806523
:100460008CBD289A82E191E00E94B80280E00E944F
:10047000530000D000D0EDB7FEB731962BE331E04A
:10048000ADB7BEB712963C932E9311978283138219
:100490000E949C020F900F900F900F9086E691E0C3
:1004A0000E94B8020E940A0182E991E00E94B8020B
:1004B0000E940F0286EAE82E81E0F82E4C99FECFCA
:1004C00000EC11E0E8018FE70E9453008993B1E04E
:1004D000C13DDB07C1F7FE01719790E08191980F54
:1004E00081E0E03DF807D1F780819817F1F487E0CB
:1004F00061E00E94CD0000D0ADB7BEB71296FC926D
:10050000EE9211970E949C020F900F90F80181913A
:100510008F0190E00E94B102F1E0013D1F07B1F7A9
:100520008AE090E00E94B10202C00E94EB0082E3E8
:1005300090E00E94BF00C2CFA0E0B0E0E2EAF2E0AB
:100540000C947A05FE013596619171918091E501D7
:100550009091E601AF010E94ED022096E2E00C943A
:1005600096056091E5017091E6010E94E00408950E
:100570000F931F93CF93DF938C01E091E501F091EE
:10058000E601838181FF21C0C0E0D0E00DC0E09191
:10059000E501F091E60120853185BF01F90109955A
:1005A000892B11F0CFEFDFEFF80181918F018823C4
:1005B00071F7E091E501F091E601208531858AE04F
:1005C000BF01F9010995892B11F0CFEFDFEFCE01C3
:1005D000DF91CF911F910F910895ABE0B0E0E3EF71
:1005E000F2E00C946A053C012B015A01FC011782D0
:1005F0001682838181FD03C06FEF7FEFC6C19AE051
:10060000892E1E010894211C311CF3012381F20163
:1006100023FD859123FF81912F01882309F4B2C125
:10062000853239F423FD859123FF81912F01853295
:1006300029F490E0B3010E94E004E7CF982FFF2453
:10064000EE249924FFE1FF15D0F09B3269F09C3233
:1006500028F4903259F0933291F40EC09D3249F053
:10066000903369F441E024C052E0F52A84E0F82A8E
:1006700028C098E0F92A25C0E0E1FE2A22C0F7FC54
:1006800029C0892F80538A3070F4F6FE05C0989CEB
:10069000902C1124980E15C0E89CE02C1124E80E33
:1006A000F0E2FF2A0EC09E3229F4F6FC6BC140E452
:1006B000F42A07C09C3619F450E8F52A02C098368F
:1006C00049F4F20123FD959123FF91912F01992384
:1006D00009F0B8CF892F8554833018F080528330C9
:1006E00038F444E050E0A40EB51E5FE359830FC018
:1006F000933631F0933779F0933509F056C020C026
:10070000F5018081898342E050E0A40EB51E6101AD
:1007100001E010E012C0F501C080D180F6FC03C0FA
:100720006FEF7FEF02C0692D70E042E050E0A40E51
:10073000B51EC6010E94D5048C015FE7F52214C0E6
:10074000F501C080D180F6FC03C06FEF7FEF02C0DF
:10075000692D70E042E050E0A40EB51EC6010E9473
:10076000CA048C0150E8F52AF3FE07C01AC080E2E3
:1007700090E0B3010E94E004EA948E2D90E0081707
:100780001907A8F30EC0F601F7FC8591F7FE8191D9
:100790006F0190E0B3010E94E004E110EA9401507F
:1007A00010400115110579F7EAC0943611F0993619
:1007B00069F5F7FE08C0F50120813181428153813E
:1007C00084E090E00AC0F501808191819C0144277A
:1007D00037FD4095542F82E090E0A80EB91E9FE6A9
:1007E000F92257FF09C050954095309521953F4F0C
:1007F0004F4F5F4FE0E8FE2ACA01B901A1012AE08C
:1008000030E00E940C05D82ED21840C0953729F44C
:100810001F2D1F7E2AE030E01DC01F2D197F9F363F
:1008200061F0903720F4983509F0ACC00FC09037D4
:1008300039F0983709F0A6C004C028E030E00AC0BB
:10084000106114FD146020E130E004C014FD166056
:1008500020E132E017FF08C0F501608171818281DB
:10086000938144E050E008C0F50180819181BC0192
:1008700080E090E042E050E0A40EB51EA1010E948D
:100880000C05D82ED2188FE7F82EF122F6FE0BC0F9
:100890005EEFF522D91438F4F4FE07C0F2FC05C06F
:1008A0008FEEF82202C01D2D01C0192DF4FE0DC0DF
:1008B000FE01ED0DF11D8081803319F499EEF922CE
:1008C00008C01F5FF2FE05C003C08F2D867809F0B7
:1008D0001F5F0F2DF3FC14C0F0FE0FC01E1510F0AB
:1008E0009D2C0BC09D2C9E0C911A1E2D06C080E2E3
:1008F00090E0B3010E94E0041F5F1E15C0F304C026
:100900001E1510F4E11A01C0EE2404FF0FC080E3AD
:1009100090E0B3010E94E00402FF1DC001FD03C08E
:1009200088E790E00EC088E590E00BC0802F8678C5
:1009300091F001FF02C08BE201C080E2F7FC8DE282
:1009400090E0B3010E94E00406C080E390E0B301B0
:100950000E94E0049A94D914C0F3DA94F101ED0DE9
:10096000F11D808190E0B3010E94E004DD20A9F731
:1009700006C080E290E0B3010E94E004EA94EE2019
:10098000C1F743CEF30166817781CB012B96E2E17B
:100990000C948605FC010590615070400110D8F759
:1009A000809590958E0F9F1F0895FC0161507040B7
:1009B00001900110D8F7809590958E0F9F1F089594
:1009C0000F931F93CF93DF938C01EB018B8181FFFA
:1009D0001BC082FF0DC02E813F818C819D81281715
:1009E000390764F4E881F9810193F983E88306C04B
:1009F000E885F985802F0995892B31F48E819F81B7
:100A000001969F838E8302C00FEF1FEFC801DF9115
:100A1000CF911F910F910895FA01AA27283051F123
:100A2000203181F1E8946F936E7F6E5F7F4F8F4F1F
:100A30009F4FAF4FB1E03ED0B4E03CD0670F781F7E
:100A4000891F9A1FA11D680F791F8A1F911DA11D63
:100A50006A0F711D811D911DA11D20D009F468949C
:100A60003F912AE0269F11243019305D3193DEF644
:100A7000CF010895462F4770405D4193B3E00FD0FA
:100A8000C9F7F6CF462F4F70405D4A3318F0495DE5
:100A900031FD4052419302D0A9F7EACFB4E0A695C8
:100AA0009795879577956795BA95C9F700976105EA
:100AB000710508959B01AC010A2E06945795479540
:100AC00037952795BA95C9F7620F731F841F951F35
:100AD000A01D08952F923F924F925F926F927F9246
:100AE0008F929F92AF92BF92CF92DF92EF92FF923E
:100AF0000F931F93CF93DF93CDB7DEB7CA1BDB0BEA
:100B00000FB6F894DEBF0FBECDBF09942A8839888E
:100B100048885F846E847D848C849B84AA84B98495
:100B2000C884DF80EE80FD800C811B81AA81B981A1
:100B3000CE0FD11D0FB6F894DEBF0FBECDBFED01B5
:060B40000895F894FFCFB8
:100B4600494E54203D3D203000494E54203D3D2025
:100B560031002A2A2A2A2A2A2A2A52464D323220A5
:100B6600436F6D6D756E69636174696F6E20546550
:100B760073742A2A2A2A2A2A2A2A00526561646953
:100B86006E672044545950452072656769737465D1
:100B9600722C2073686F756C642062652030783023
:100BA600383A202564000A2A2A2A2A2A2A2A2A2AA0
:100BB6002A2A2A2A2A2A2A2A2A2A2A2A2A2A2A2A8F
:100BC6002A2A2A2A2A2A2A2A2A2A2A2A2A2A2A2A7F
:100BD6000A00456E746572696E67205258204D6F23
:100BE60064652E2E2E0052656365697665643A202B
:100BF600000000000200000000710000000000007C
:00000001FF
