:100000000C9434000C9451000C9451000C94510049
:100010000C9451000C9451000C9451000C9451001C
:100020000C9451000C9451000C9451000C9451000C
:100030000C9451000C9451000C9451000C945100FC
:100040000C9451000C9451000C9451000C945100EC
:100050000C9451000C9451000C9451000C945100DC
:100060000C9451000C94510011241FBECFEFD8E026
:10007000DEBFCDBF12E0A0E0B1E0ECEBFBE002C0E0
:1000800005900D92A432B107D9F712E0A4E2B2E0D4
:1000900001C01D92AA32B107E1F70E9489020C94B7
:1000A000DC050C9400008F7728988EBD0DB407FEF8
:1000B000FDCF85E58EBD0DB407FEFDCF8EB5289A28
:1000C000089585E58EBD0DB407FEFDCF8EB508956C
:1000D0008EBD0DB407FEFDCF08958CB583658CBD34
:1000E00008951F93182F8A3019F48DE00E94710033
:1000F0008091C00085FFFCCF1093C60080E090E0A7
:100100001F9108958091C00087FFFCCF8091C600A9
:1001100008958FEE84B98FEF87B98EEE8AB985E1A5
:1001200092E090932702809326021092C50087E602
:100130008093C40088E18093C10086E08093C20070
:1001400082E08093C0008093B1005D985E9808952E
:100150009C0181E007C087BB1092B200B89BFECF24
:100160002050314091E021303907A8F781E087BB6A
:10017000822F81958093B200B89BFECF0895CF93D4
:10018000DF93EC0105C088EE93E00E94A800219760
:100190002097C9F7DF91CF9108950F931F93062FF2
:1001A000182F1068289881E090E00E94BF001EBDC3
:1001B0000DB407FEFDCF81E090E00E94BF000EBDB0
:1001C0000DB407FEFDCF81E090E00E94BF00289AA9
:1001D0001F910F91089586E060E00E94CD0087E0B6
:1001E00061E00E94CD0089E06FE70E94CD008AE0C7
:1001F00065E00E94CD008BE064EF0E94CD008CE0B2
:100200006FEE0E94CD008DE060E00E94CD008EE098
:1002100060E00E94CD008FE060E70E94CD0080E1A9
:1002200060E00E94CD0082E160E00E94CD0083E1A9
:1002300060E00E94CD0080E760E20E94CD008CE18A
:100240006DE10E94CD008DE160E40E94CD0080E26E
:1002500061EA0E94CD0081E260E20E94CD0082E26C
:100260006EE40E94CD0083E265EA0E94CD0084E244
:1002700060E00E94CD0085E26AE00E94CD008CE241
:1002800060E00E94CD008DE260E00E94CD008EE231
:1002900060E00E94CD008EE667E20E94CD008FE60E
:1002A00062E50E94CD0080E36CE80E94CD0082E30D
:1002B0006FEF0E94CD0083E362E40E94CD0084E3EF
:1002C00060E40E94CD0085E360E20E94CD0086E3F9
:1002D0006DE20E94CD0087E364ED0E94CD0088E3CB
:1002E00060E00E94CD0089E360E00E94CD008AE3D7
:1002F00063E70E94CD008BE36FE60E94CD008CE3A4
:100300006EE60E94CD008DE367E60E94CD008EE38D
:1003100061E10E94CD008FE363E70E94CD0080E49D
:100320006FE60E94CD0081E46EE60E94CD0082E47B
:1003300067E60E94CD0083E46FEF0E94CD0084E465
:100340006FEF0E94CD0085E46FEF0E94CD0086E440
:100350006FEF0E94CD0086E561E00E94CD008DE642
:1003600067E00E94CD0089E760E00E94CD008AE747
:1003700060E00E94CD0081E762E20E94CD0082E74A
:1003800068E40E94CD0083E760E00E94CD0084E72E
:1003900060E00E94CD0085E763E50E94CD0086E71E
:1003A00064E60E94CD0087E760E00E94CD008AE508
:1003B0006FE70E94CD0089E560E40E94CD0088E5EA
:1003C00060E80E94CD008AE66BE00E94CD0088E6DE
:1003D00064E00E94CD008FE163E00E94CD000895AB
:1003E000CF93DF9387E061E00E94CD005E985D9A35
:1003F00082E390E00E94BF0088E063E00E94CD00AD
:1004000088E060E00E94CD0084E360E40E94CD00BB
:100410008EE361E10E94CD00C4E0D2E08FE76991F4
:100420000E94CD0082E0C531D807C1F785E064E0C5
:100430000E94CD0083E00E94530084E00E9453009C
:1004400087E069E00E94CD004C99FECF87E061E033
:100450000E94CD005E985D98DF91CF9108954C99F0
:1004600003C080E091E002C089E091E00E94F302C5
:100470000895CF92DF92EF92FF920F931F93CF9345
:10048000DF9394E0E92E92E0F92E8701CFE0D0E0EF
:1004900082E1C82E81E0D82E8091C00087FFFCCF7A
:1004A0008091C600D8018D938D0100D000D000D07E
:1004B000EDB7FEB73196ADB7BEB71296DC92CE92CD
:1004C000119782831382D583C4830E94D702219718
:1004D000EDB7FEB736960FB6F894FEBF0FBEEDBF70
:1004E000F2E004311F07C1F690E0D7018D917D0144
:1004F000980FB4E1EB16B2E0FB06B9F79093140243
:10050000DF91CF911F910F91FF90EF90DF90CF90EF
:1005100008950F931F93CF93DF930E9489008CB5AA
:1005200083658CBD289A83E491E00E94F30280E009
:100530000E94530081E00E94530085E00E94530016
:1005400086E00E94530087E00E94530088E00E94EA
:1005500053008CE691E00E94F3020E94EB000E949F
:10056000F00187E991E00E94F30204EC11E00E949F
:10057000390200D0EDB7FEB7128301830E94D70283
:10058000C4E0D2E00F900F90899190E00E94EC02BD
:10059000F2E0C531DF07C1F78AE090E00E94EC028B
:1005A0000E94F00183ED91E00E94F302E0CFA0E011
:1005B000B0E0EDEDF2E00C94B505FE0135966191E9
:1005C00071918091260290912702AF010E94280329
:1005D0002096E2E00C94D1056091260270912702EA
:1005E0000E941B0508950F931F93CF93DF938C01F7
:1005F000E0912602F0912702838181FF21C0C0E0B3
:10060000D0E00DC0E0912602F091270220853185CF
:10061000BF01F9010995892B11F0CFEFDFEFF80148
:1006200081918F01882371F7E0912602F0912702D2
:10063000208531858AE0BF01F9010995892B11F0E8
:10064000CFEFDFEFCE01DF91CF911F910F91089592
:10065000ABE0B0E0EEE2F3E00C94A5053C012B0129
:100660005A01FC0117821682838181FD03C06FEF5E
:100670007FEFC6C19AE0892E1E010894211C311C0F
:10068000F3012381F20123FD859123FF81912F0145
:10069000882309F4B2C1853239F423FD859123FF03
:1006A00081912F01853229F490E0B3010E941B054E
:1006B000E7CF982FFF24EE249924FFE1FF15D0F017
:1006C0009B3269F09C3228F4903259F0933291F4C5
:1006D0000EC09D3249F0903369F441E024C052E0ED
:1006E000F52A84E0F82A28C098E0F92A25C0E0E13C
:1006F000FE2A22C0F7FC29C0892F80538A3070F46B
:10070000F6FE05C0989C902C1124980E15C0E89C0C
:10071000E02C1124E80EF0E2FF2A0EC09E3229F4EC
:10072000F6FC6BC140E4F42A07C09C3619F450E88B
:10073000F52A02C0983649F4F20123FD959123FF72
:1007400091912F01992309F0B8CF892F85548330D7
:1007500018F08052833038F444E050E0A40EB51E07
:100760005FE359830FC0933631F0933779F09335B7
:1007700009F056C020C0F5018081898342E050E035
:10078000A40EB51E610101E010E012C0F501C080A9
:10079000D180F6FC03C06FEF7FEF02C0692D70E0DF
:1007A00042E050E0A40EB51EC6010E9410058C0167
:1007B0005FE7F52214C0F501C080D180F6FC03C0CC
:1007C0006FEF7FEF02C0692D70E042E050E0A40EB1
:1007D000B51EC6010E9405058C0150E8F52AF3FEFE
:1007E00007C01AC080E290E0B3010E941B05EA94A2
:1007F0008E2D90E008171907A8F30EC0F601F7FC3C
:100800008591F7FE81916F0190E0B3010E941B0575
:10081000E110EA94015010400115110579F7EAC082
:10082000943611F0993669F5F7FE08C0F50120817C
:1008300031814281538184E090E00AC0F5018081DA
:1008400091819C01442737FD4095542F82E090E030
:10085000A80EB91E9FE6F92257FF09C05095409592
:10086000309521953F4F4F4F5F4FE0E8FE2ACA0178
:10087000B901A1012AE030E00E944705D82ED21824
:1008800040C0953729F41F2D1F7E2AE030E01DC09F
:100890001F2D197F9F3661F0903720F4983509F0AD
:1008A000ACC00FC0903739F0983709F0A6C004C02B
:1008B00028E030E00AC0106114FD146020E130E04F
:1008C00004C014FD166020E132E017FF08C0F501F6
:1008D000608171818281938144E050E008C0F5011C
:1008E00080819181BC0180E090E042E050E0A40E64
:1008F000B51EA1010E944705D82ED2188FE7F82E09
:10090000F122F6FE0BC05EEFF522D91438F4F4FEA6
:1009100007C0F2FC05C08FEEF82202C01D2D01C0F9
:10092000192DF4FE0DC0FE01ED0DF11D8081803307
:1009300019F499EEF92208C01F5FF2FE05C003C04A
:100940008F2D867809F01F5F0F2DF3FC14C0F0FE89
:100950000FC01E1510F09D2C0BC09D2C9E0C911AE3
:100960001E2D06C080E290E0B3010E941B051F5FB0
:100970001E15C0F304C01E1510F4E11A01C0EE24C8
:1009800004FF0FC080E390E0B3010E941B0502FF4B
:100990001DC001FD03C088E790E00EC088E590E02F
:1009A0000BC0802F867891F001FF02C08BE201C05E
:1009B00080E2F7FC8DE290E0B3010E941B0506C0C7
:1009C00080E390E0B3010E941B059A94D914C0F310
:1009D000DA94F101ED0DF11D808190E0B3010E94E8
:1009E0001B05DD20A9F706C080E290E0B3010E945C
:1009F0001B05EA94EE20C1F743CEF30166817781AF
:100A0000CB012B96E2E10C94C105FC0105906150ED
:100A100070400110D8F7809590958E0F9F1F089514
:100A2000FC016150704001900110D8F780959095BD
:100A30008E0F9F1F08950F931F93CF93DF938C0109
:100A4000EB018B8181FF1BC082FF0DC02E813F8196
:100A50008C819D812817390764F4E881F98101931D
:100A6000F983E88306C0E885F985802F0995892BED
:100A700031F48E819F8101969F838E8302C00FEF98
:100A80001FEFC801DF91CF911F910F910895FA01D7
:100A9000AA27283051F1203181F1E8946F936E7FBD
:100AA0006E5F7F4F8F4F9F4FAF4FB1E03ED0B4E0AE
:100AB0003CD0670F781F891F9A1FA11D680F791FEF
:100AC0008A1F911DA11D6A0F711D811D911DA11D00
:100AD00020D009F468943F912AE0269F1124301910
:100AE000305D3193DEF6CF010895462F4770405DAB
:100AF0004193B3E00FD0C9F7F6CF462F4F70405D5A
:100B00004A3318F0495D31FD4052419302D0A9F7B4
:100B1000EACFB4E0A6959795879577956795BA95AE
:100B2000C9F700976105710508959B01AC010A2E74
:100B300006945795479537952795BA95C9F7620F4B
:100B4000731F841F951FA01D08952F923F924F92EF
:100B50005F926F927F928F929F92AF92BF92CF924D
:100B6000DF92EF92FF920F931F93CF93DF93CDB756
:100B7000DEB7CA1BDB0B0FB6F894DEBF0FBECDBFCE
:100B800009942A88398848885F846E847D848C849F
:100B90009B84AA84B984C884DF80EE80FD800C81A8
:100BA0001B81AA81B981CE0FD11D0FB6F894DEBF8B
:0C0BB0000FBECDBFED010895F894FFCFFB
:100BBC00494E54203D3D203000494E54203D3D20AF
:100BCC00310052656365697665642025632C2025A8
:100BDC006420636861726163746572732072656D01
:100BEC0061696E696E6720666F72207061636B65F8
:100BFC00740A002A2A2A2A2A2A2A2A52464D3232D2
:100C0C0020436F6D6D756E69636174696F6E2054EE
:100C1C006573742A2A2A2A2A2A2A2A002A2A2A2A84
:100C2C002A2A2A2A2A2A2A2A2A2A2A2A2A2A2A2A18
:100C3C002A2A2A2A2A2A2A2A2A2A2A2A2A2A2A2A08
:100C4C002A2A2A2A2A0A00456E746572696E672060
:100C5C005458204D6F64652E2E2E47697665206D95
:100C6C006520612031362D62797465207061636B6B
:100C7C0065740A005472616E736D697474696E6781
:100C8C003A20005472616E736D697420646F6E65E6
:100C9C002E2E2E507265737320616E79206B6579E0
:100CAC0020746F207472616E736D6974206167615A
:100CBC00696E0A00303132333435363738393A3BC5
:100CCC003C3D3E3F78000000020000000071000037
:040CDC000000000014
:00000001FF
